{
  "_format": "hh-sol-artifact-1",
  "contractName": "PoetryNFT",
  "sourceName": "contracts/PoetryNFT.sol",
  "abi": [
    {
      "inputs": [],
      "stateMutability": "nonpayable",
      "type": "constructor"
    },
    {
      "inputs": [
        {
          "internalType": "address",
          "name": "sender",
          "type": "address"
        },
        {
          "internalType": "uint256",
          "name": "tokenId",
          "type": "uint256"
        },
        {
          "internalType": "address",
          "name": "owner",
          "type": "address"
        }
      ],
      "name": "ERC721IncorrectOwner",
      "type": "error"
    },
    {
      "inputs": [
        {
          "internalType": "address",
          "name": "operator",
          "type": "address"
        },
        {
          "internalType": "uint256",
          "name": "tokenId",
          "type": "uint256"
        }
      ],
      "name": "ERC721InsufficientApproval",
      "type": "error"
    },
    {
      "inputs": [
        {
          "internalType": "address",
          "name": "approver",
          "type": "address"
        }
      ],
      "name": "ERC721InvalidApprover",
      "type": "error"
    },
    {
      "inputs": [
        {
          "internalType": "address",
          "name": "operator",
          "type": "address"
        }
      ],
      "name": "ERC721InvalidOperator",
      "type": "error"
    },
    {
      "inputs": [
        {
          "internalType": "address",
          "name": "owner",
          "type": "address"
        }
      ],
      "name": "ERC721InvalidOwner",
      "type": "error"
    },
    {
      "inputs": [
        {
          "internalType": "address",
          "name": "receiver",
          "type": "address"
        }
      ],
      "name": "ERC721InvalidReceiver",
      "type": "error"
    },
    {
      "inputs": [
        {
          "internalType": "address",
          "name": "sender",
          "type": "address"
        }
      ],
      "name": "ERC721InvalidSender",
      "type": "error"
    },
    {
      "inputs": [
        {
          "internalType": "uint256",
          "name": "tokenId",
          "type": "uint256"
        }
      ],
      "name": "ERC721NonexistentToken",
      "type": "error"
    },
    {
      "anonymous": false,
      "inputs": [
        {
          "indexed": true,
          "internalType": "address",
          "name": "owner",
          "type": "address"
        },
        {
          "indexed": true,
          "internalType": "address",
          "name": "approved",
          "type": "address"
        },
        {
          "indexed": true,
          "internalType": "uint256",
          "name": "tokenId",
          "type": "uint256"
        }
      ],
      "name": "Approval",
      "type": "event"
    },
    {
      "anonymous": false,
      "inputs": [
        {
          "indexed": true,
          "internalType": "address",
          "name": "owner",
          "type": "address"
        },
        {
          "indexed": true,
          "internalType": "address",
          "name": "operator",
          "type": "address"
        },
        {
          "indexed": false,
          "internalType": "bool",
          "name": "approved",
          "type": "bool"
        }
      ],
      "name": "ApprovalForAll",
      "type": "event"
    },
    {
      "anonymous": false,
      "inputs": [
        {
          "indexed": true,
          "internalType": "address",
          "name": "author",
          "type": "address"
        },
        {
          "indexed": true,
          "internalType": "uint256",
          "name": "tokenId",
          "type": "uint256"
        },
        {
          "indexed": false,
          "internalType": "string",
          "name": "poemText",
          "type": "string"
        }
      ],
      "name": "PoemPublished",
      "type": "event"
    },
    {
      "anonymous": false,
      "inputs": [
        {
          "indexed": true,
          "internalType": "address",
          "name": "from",
          "type": "address"
        },
        {
          "indexed": true,
          "internalType": "address",
          "name": "to",
          "type": "address"
        },
        {
          "indexed": true,
          "internalType": "uint256",
          "name": "tokenId",
          "type": "uint256"
        }
      ],
      "name": "Transfer",
      "type": "event"
    },
    {
      "inputs": [
        {
          "internalType": "address",
          "name": "to",
          "type": "address"
        },
        {
          "internalType": "uint256",
          "name": "tokenId",
          "type": "uint256"
        }
      ],
      "name": "approve",
      "outputs": [],
      "stateMutability": "nonpayable",
      "type": "function"
    },
    {
      "inputs": [
        {
          "internalType": "address",
          "name": "owner",
          "type": "address"
        }
      ],
      "name": "balanceOf",
      "outputs": [
        {
          "internalType": "uint256",
          "name": "",
          "type": "uint256"
        }
      ],
      "stateMutability": "view",
      "type": "function"
    },
    {
      "inputs": [
        {
          "internalType": "uint256",
          "name": "tokenId",
          "type": "uint256"
        }
      ],
      "name": "getApproved",
      "outputs": [
        {
          "internalType": "address",
          "name": "",
          "type": "address"
        }
      ],
      "stateMutability": "view",
      "type": "function"
    },
    {
      "inputs": [],
      "name": "getCurrentTokenId",
      "outputs": [
        {
          "internalType": "uint256",
          "name": "",
          "type": "uint256"
        }
      ],
      "stateMutability": "view",
      "type": "function"
    },
    {
      "inputs": [
        {
          "internalType": "address",
          "name": "owner",
          "type": "address"
        },
        {
          "internalType": "address",
          "name": "operator",
          "type": "address"
        }
      ],
      "name": "isApprovedForAll",
      "outputs": [
        {
          "internalType": "bool",
          "name": "",
          "type": "bool"
        }
      ],
      "stateMutability": "view",
      "type": "function"
    },
    {
      "inputs": [],
      "name": "name",
      "outputs": [
        {
          "internalType": "string",
          "name": "",
          "type": "string"
        }
      ],
      "stateMutability": "view",
      "type": "function"
    },
    {
      "inputs": [
        {
          "internalType": "uint256",
          "name": "tokenId",
          "type": "uint256"
        }
      ],
      "name": "ownerOf",
      "outputs": [
        {
          "internalType": "address",
          "name": "",
          "type": "address"
        }
      ],
      "stateMutability": "view",
      "type": "function"
    },
    {
      "inputs": [
        {
          "internalType": "string",
          "name": "poemText",
          "type": "string"
        }
      ],
      "name": "publishPoem",
      "outputs": [
        {
          "internalType": "uint256",
          "name": "",
          "type": "uint256"
        }
      ],
      "stateMutability": "nonpayable",
      "type": "function"
    },
    {
      "inputs": [
        {
          "internalType": "address",
          "name": "from",
          "type": "address"
        },
        {
          "internalType": "address",
          "name": "to",
          "type": "address"
        },
        {
          "internalType": "uint256",
          "name": "tokenId",
          "type": "uint256"
        }
      ],
      "name": "safeTransferFrom",
      "outputs": [],
      "stateMutability": "nonpayable",
      "type": "function"
    },
    {
      "inputs": [
        {
          "internalType": "address",
          "name": "from",
          "type": "address"
        },
        {
          "internalType": "address",
          "name": "to",
          "type": "address"
        },
        {
          "internalType": "uint256",
          "name": "tokenId",
          "type": "uint256"
        },
        {
          "internalType": "bytes",
          "name": "data",
          "type": "bytes"
        }
      ],
      "name": "safeTransferFrom",
      "outputs": [],
      "stateMutability": "nonpayable",
      "type": "function"
    },
    {
      "inputs": [
        {
          "internalType": "address",
          "name": "operator",
          "type": "address"
        },
        {
          "internalType": "bool",
          "name": "approved",
          "type": "bool"
        }
      ],
      "name": "setApprovalForAll",
      "outputs": [],
      "stateMutability": "nonpayable",
      "type": "function"
    },
    {
      "inputs": [
        {
          "internalType": "bytes4",
          "name": "interfaceId",
          "type": "bytes4"
        }
      ],
      "name": "supportsInterface",
      "outputs": [
        {
          "internalType": "bool",
          "name": "",
          "type": "bool"
        }
      ],
      "stateMutability": "view",
      "type": "function"
    },
    {
      "inputs": [],
      "name": "symbol",
      "outputs": [
        {
          "internalType": "string",
          "name": "",
          "type": "string"
        }
      ],
      "stateMutability": "view",
      "type": "function"
    },
    {
      "inputs": [
        {
          "internalType": "uint256",
          "name": "tokenId",
          "type": "uint256"
        }
      ],
      "name": "tokenURI",
      "outputs": [
        {
          "internalType": "string",
          "name": "",
          "type": "string"
        }
      ],
      "stateMutability": "view",
      "type": "function"
    },
    {
      "inputs": [
        {
          "internalType": "address",
          "name": "from",
          "type": "address"
        },
        {
          "internalType": "address",
          "name": "to",
          "type": "address"
        },
        {
          "internalType": "uint256",
          "name": "tokenId",
          "type": "uint256"
        }
      ],
      "name": "transferFrom",
      "outputs": [],
      "stateMutability": "nonpayable",
      "type": "function"
    }
  ],
  "bytecode": "0x60806040523480156200001157600080fd5b506040518060400160405280600981526020017f506f657472794e465400000000000000000000000000000000000000000000008152506040518060400160405280600481526020017f504f454d0000000000000000000000000000000000000000000000000000000081525081600090816200008f919062000324565b508060019081620000a1919062000324565b5050506200040b565b600081519050919050565b7f4e487b7100000000000000000000000000000000000000000000000000000000600052604160045260246000fd5b7f4e487b7100000000000000000000000000000000000000000000000000000000600052602260045260246000fd5b600060028204905060018216806200012c57607f821691505b602082108103620001425762000141620000e4565b5b50919050565b60008190508160005260206000209050919050565b60006020601f8301049050919050565b600082821b905092915050565b600060088302620001ac7fffffffffffffffffffffffffffffffffffffffffffffffffffffffffffffffff826200016d565b620001b886836200016d565b95508019841693508086168417925050509392505050565b6000819050919050565b6000819050919050565b600062000205620001ff620001f984620001d0565b620001da565b620001d0565b9050919050565b6000819050919050565b6200022183620001e4565b6200023962000230826200020c565b8484546200017a565b825550505050565b600090565b6200025062000241565b6200025d81848462000216565b505050565b5b8181101562000285576200027960008262000246565b60018101905062000263565b5050565b601f821115620002d4576200029e8162000148565b620002a9846200015d565b81016020851015620002b9578190505b620002d1620002c8856200015d565b83018262000262565b50505b505050565b600082821c905092915050565b6000620002f960001984600802620002d9565b1980831691505092915050565b6000620003148383620002e6565b9150826002028217905092915050565b6200032f82620000aa565b67ffffffffffffffff8111156200034b576200034a620000b5565b5b62000357825462000113565b6200036482828562000289565b600060209050601f8311600181146200039c576000841562000387578287015190505b62000393858262000306565b86555062000403565b601f198416620003ac8662000148565b60005b82811015620003d657848901518255600182019150602085019450602081019050620003af565b86831015620003f65784890151620003f2601f891682620002e6565b8355505b6001600288020188555050505b505050505050565b611fc6806200041b6000396000f3fe608060405234801561001057600080fd5b50600436106100f55760003560e01c80636352211e11610097578063b88d4fde11610066578063b88d4fde14610284578063c87b56dd146102a0578063e040b5ed146102d0578063e985e9c514610300576100f5565b80636352211e146101ea57806370a082311461021a57806395d89b411461024a578063a22cb46514610268576100f5565b8063095ea7b3116100d3578063095ea7b31461017857806323b872dd1461019457806342842e0e146101b057806356189236146101cc576100f5565b806301ffc9a7146100fa57806306fdde031461012a578063081812fc14610148575b600080fd5b610114600480360381019061010f91906116c3565b610330565b604051610121919061170b565b60405180910390f35b610132610412565b60405161013f91906117b6565b60405180910390f35b610162600480360381019061015d919061180e565b6104a4565b60405161016f919061187c565b60405180910390f35b610192600480360381019061018d91906118c3565b6104c0565b005b6101ae60048036038101906101a99190611903565b6104d6565b005b6101ca60048036038101906101c59190611903565b6105d8565b005b6101d46105f8565b6040516101e19190611965565b60405180910390f35b61020460048036038101906101ff919061180e565b610602565b604051610211919061187c565b60405180910390f35b610234600480360381019061022f9190611980565b610614565b6040516102419190611965565b60405180910390f35b6102526106ce565b60405161025f91906117b6565b60405180910390f35b610282600480360381019061027d91906119d9565b610760565b005b61029e60048036038101906102999190611b4e565b610776565b005b6102ba60048036038101906102b5919061180e565b61079b565b6040516102c791906117b6565b60405180910390f35b6102ea60048036038101906102e59190611c72565b610804565b6040516102f79190611965565b60405180910390f35b61031a60048036038101906103159190611cbb565b610888565b604051610327919061170b565b60405180910390f35b60007f80ac58cd000000000000000000000000000000000000000000000000000000007bffffffffffffffffffffffffffffffffffffffffffffffffffffffff1916827bffffffffffffffffffffffffffffffffffffffffffffffffffffffff191614806103fb57507f5b5e139f000000000000000000000000000000000000000000000000000000007bffffffffffffffffffffffffffffffffffffffffffffffffffffffff1916827bffffffffffffffffffffffffffffffffffffffffffffffffffffffff1916145b8061040b575061040a8261091c565b5b9050919050565b60606000805461042190611d2a565b80601f016020809104026020016040519081016040528092919081815260200182805461044d90611d2a565b801561049a5780601f1061046f5761010080835404028352916020019161049a565b820191906000526020600020905b81548152906001019060200180831161047d57829003601f168201915b5050505050905090565b60006104af82610986565b506104b982610a0e565b9050919050565b6104d282826104cd610a4b565b610a53565b5050565b600073ffffffffffffffffffffffffffffffffffffffff168273ffffffffffffffffffffffffffffffffffffffff16036105485760006040517f64a0ae9200000000000000000000000000000000000000000000000000000000815260040161053f919061187c565b60405180910390fd5b600061055c8383610557610a4b565b610a65565b90508373ffffffffffffffffffffffffffffffffffffffff168173ffffffffffffffffffffffffffffffffffffffff16146105d2578382826040517f64283d7b0000000000000000000000000000000000000000000000000000000081526004016105c993929190611d5b565b60405180910390fd5b50505050565b6105f383838360405180602001604052806000815250610776565b505050565b6000600654905090565b600061060d82610986565b9050919050565b60008073ffffffffffffffffffffffffffffffffffffffff168273ffffffffffffffffffffffffffffffffffffffff16036106875760006040517f89c62b6400000000000000000000000000000000000000000000000000000000815260040161067e919061187c565b60405180910390fd5b600360008373ffffffffffffffffffffffffffffffffffffffff1673ffffffffffffffffffffffffffffffffffffffff168152602001908152602001600020549050919050565b6060600180546106dd90611d2a565b80601f016020809104026020016040519081016040528092919081815260200182805461070990611d2a565b80156107565780601f1061072b57610100808354040283529160200191610756565b820191906000526020600020905b81548152906001019060200180831161073957829003601f168201915b5050505050905090565b61077261076b610a4b565b8383610c7f565b5050565b6107818484846104d6565b61079561078c610a4b565b85858585610dee565b50505050565b60606107a682610986565b5060006107b1610f9f565b905060008151116107d157604051806020016040528060008152506107fc565b806107db84610fb6565b6040516020016107ec929190611dce565b6040516020818303038152906040525b915050919050565b600080600654905060016006600082825461081f9190611e21565b925050819055506108303382611084565b803373ffffffffffffffffffffffffffffffffffffffff167f82c444b2d4d9c2614b9657b281c76ca3e6e788fe517519458b93818227382d2c8560405161087791906117b6565b60405180910390a380915050919050565b6000600560008473ffffffffffffffffffffffffffffffffffffffff1673ffffffffffffffffffffffffffffffffffffffff16815260200190815260200160002060008373ffffffffffffffffffffffffffffffffffffffff1673ffffffffffffffffffffffffffffffffffffffff16815260200190815260200160002060009054906101000a900460ff16905092915050565b60007f01ffc9a7000000000000000000000000000000000000000000000000000000007bffffffffffffffffffffffffffffffffffffffffffffffffffffffff1916827bffffffffffffffffffffffffffffffffffffffffffffffffffffffff1916149050919050565b6000806109928361117d565b9050600073ffffffffffffffffffffffffffffffffffffffff168173ffffffffffffffffffffffffffffffffffffffff1603610a0557826040517f7e2732890000000000000000000000000000000000000000000000000000000081526004016109fc9190611965565b60405180910390fd5b80915050919050565b60006004600083815260200190815260200160002060009054906101000a900473ffffffffffffffffffffffffffffffffffffffff169050919050565b600033905090565b610a6083838360016111ba565b505050565b600080610a718461117d565b9050600073ffffffffffffffffffffffffffffffffffffffff168373ffffffffffffffffffffffffffffffffffffffff1614610ab357610ab281848661137f565b5b600073ffffffffffffffffffffffffffffffffffffffff168173ffffffffffffffffffffffffffffffffffffffff1614610b4457610af56000856000806111ba565b6001600360008373ffffffffffffffffffffffffffffffffffffffff1673ffffffffffffffffffffffffffffffffffffffff168152602001908152602001600020600082825403925050819055505b600073ffffffffffffffffffffffffffffffffffffffff168573ffffffffffffffffffffffffffffffffffffffff1614610bc7576001600360008773ffffffffffffffffffffffffffffffffffffffff1673ffffffffffffffffffffffffffffffffffffffff168152602001908152602001600020600082825401925050819055505b846002600086815260200190815260200160002060006101000a81548173ffffffffffffffffffffffffffffffffffffffff021916908373ffffffffffffffffffffffffffffffffffffffff160217905550838573ffffffffffffffffffffffffffffffffffffffff168273ffffffffffffffffffffffffffffffffffffffff167fddf252ad1be2c89b69c2b068fc378daa952ba7f163c4a11628f55a4df523b3ef60405160405180910390a4809150509392505050565b600073ffffffffffffffffffffffffffffffffffffffff168273ffffffffffffffffffffffffffffffffffffffff1603610cf057816040517f5b08ba18000000000000000000000000000000000000000000000000000000008152600401610ce7919061187c565b60405180910390fd5b80600560008573ffffffffffffffffffffffffffffffffffffffff1673ffffffffffffffffffffffffffffffffffffffff16815260200190815260200160002060008473ffffffffffffffffffffffffffffffffffffffff1673ffffffffffffffffffffffffffffffffffffffff16815260200190815260200160002060006101000a81548160ff0219169083151502179055508173ffffffffffffffffffffffffffffffffffffffff168373ffffffffffffffffffffffffffffffffffffffff167f17307eab39ab6107e8899845ad3d59bd9653f200f220920489ca2b5937696c3183604051610de1919061170b565b60405180910390a3505050565b60008373ffffffffffffffffffffffffffffffffffffffff163b1115610f98578273ffffffffffffffffffffffffffffffffffffffff1663150b7a02868685856040518563ffffffff1660e01b8152600401610e4d9493929190611eaa565b6020604051808303816000875af1925050508015610e8957506040513d601f19601f82011682018060405250810190610e869190611f0b565b60015b610f0d573d8060008114610eb9576040519150601f19603f3d011682016040523d82523d6000602084013e610ebe565b606091505b506000815103610f0557836040517f64a0ae92000000000000000000000000000000000000000000000000000000008152600401610efc919061187c565b60405180910390fd5b805181602001fd5b63150b7a0260e01b7bffffffffffffffffffffffffffffffffffffffffffffffffffffffff1916817bffffffffffffffffffffffffffffffffffffffffffffffffffffffff191614610f9657836040517f64a0ae92000000000000000000000000000000000000000000000000000000008152600401610f8d919061187c565b60405180910390fd5b505b5050505050565b606060405180602001604052806000815250905090565b606060006001610fc584611443565b01905060008167ffffffffffffffff811115610fe457610fe3611a23565b5b6040519080825280601f01601f1916602001820160405280156110165781602001600182028036833780820191505090505b509050600082602001820190505b600115611079578080600190039150507f3031323334353637383961626364656600000000000000000000000000000000600a86061a8153600a858161106d5761106c611f38565b5b04945060008503611024575b819350505050919050565b600073ffffffffffffffffffffffffffffffffffffffff168273ffffffffffffffffffffffffffffffffffffffff16036110f65760006040517f64a0ae920000000000000000000000000000000000000000000000000000000081526004016110ed919061187c565b60405180910390fd5b600061110483836000610a65565b9050600073ffffffffffffffffffffffffffffffffffffffff168173ffffffffffffffffffffffffffffffffffffffff16146111785760006040517f73c6ac6e00000000000000000000000000000000000000000000000000000000815260040161116f919061187c565b60405180910390fd5b505050565b60006002600083815260200190815260200160002060009054906101000a900473ffffffffffffffffffffffffffffffffffffffff169050919050565b80806111f35750600073ffffffffffffffffffffffffffffffffffffffff168273ffffffffffffffffffffffffffffffffffffffff1614155b1561132757600061120384610986565b9050600073ffffffffffffffffffffffffffffffffffffffff168373ffffffffffffffffffffffffffffffffffffffff161415801561126e57508273ffffffffffffffffffffffffffffffffffffffff168173ffffffffffffffffffffffffffffffffffffffff1614155b8015611281575061127f8184610888565b155b156112c357826040517fa9fbf51f0000000000000000000000000000000000000000000000000000000081526004016112ba919061187c565b60405180910390fd5b811561132557838573ffffffffffffffffffffffffffffffffffffffff168273ffffffffffffffffffffffffffffffffffffffff167f8c5be1e5ebec7d5bd14f71427d1e84f3dd0314c0f7b2291e5b200ac8c7c3b92560405160405180910390a45b505b836004600085815260200190815260200160002060006101000a81548173ffffffffffffffffffffffffffffffffffffffff021916908373ffffffffffffffffffffffffffffffffffffffff16021790555050505050565b61138a838383611596565b61143e57600073ffffffffffffffffffffffffffffffffffffffff168373ffffffffffffffffffffffffffffffffffffffff16036113ff57806040517f7e2732890000000000000000000000000000000000000000000000000000000081526004016113f69190611965565b60405180910390fd5b81816040517f177e802f000000000000000000000000000000000000000000000000000000008152600401611435929190611f67565b60405180910390fd5b505050565b600080600090507a184f03e93ff9f4daa797ed6e38ed64bf6a1f01000000000000000083106114a1577a184f03e93ff9f4daa797ed6e38ed64bf6a1f010000000000000000838161149757611496611f38565b5b0492506040810190505b6d04ee2d6d415b85acef810000000083106114de576d04ee2d6d415b85acef810000000083816114d4576114d3611f38565b5b0492506020810190505b662386f26fc10000831061150d57662386f26fc10000838161150357611502611f38565b5b0492506010810190505b6305f5e1008310611536576305f5e100838161152c5761152b611f38565b5b0492506008810190505b612710831061155b57612710838161155157611550611f38565b5b0492506004810190505b6064831061157e576064838161157457611573611f38565b5b0492506002810190505b600a831061158d576001810190505b80915050919050565b60008073ffffffffffffffffffffffffffffffffffffffff168373ffffffffffffffffffffffffffffffffffffffff161415801561164e57508273ffffffffffffffffffffffffffffffffffffffff168473ffffffffffffffffffffffffffffffffffffffff16148061160f575061160e8484610888565b5b8061164d57508273ffffffffffffffffffffffffffffffffffffffff1661163583610a0e565b73ffffffffffffffffffffffffffffffffffffffff16145b5b90509392505050565b6000604051905090565b600080fd5b600080fd5b60007fffffffff0000000000000000000000000000000000000000000000000000000082169050919050565b6116a08161166b565b81146116ab57600080fd5b50565b6000813590506116bd81611697565b92915050565b6000602082840312156116d9576116d8611661565b5b60006116e7848285016116ae565b91505092915050565b60008115159050919050565b611705816116f0565b82525050565b600060208201905061172060008301846116fc565b92915050565b600081519050919050565b600082825260208201905092915050565b60005b83811015611760578082015181840152602081019050611745565b60008484015250505050565b6000601f19601f8301169050919050565b600061178882611726565b6117928185611731565b93506117a2818560208601611742565b6117ab8161176c565b840191505092915050565b600060208201905081810360008301526117d0818461177d565b905092915050565b6000819050919050565b6117eb816117d8565b81146117f657600080fd5b50565b600081359050611808816117e2565b92915050565b60006020828403121561182457611823611661565b5b6000611832848285016117f9565b91505092915050565b600073ffffffffffffffffffffffffffffffffffffffff82169050919050565b60006118668261183b565b9050919050565b6118768161185b565b82525050565b6000602082019050611891600083018461186d565b92915050565b6118a08161185b565b81146118ab57600080fd5b50565b6000813590506118bd81611897565b92915050565b600080604083850312156118da576118d9611661565b5b60006118e8858286016118ae565b92505060206118f9858286016117f9565b9150509250929050565b60008060006060848603121561191c5761191b611661565b5b600061192a868287016118ae565b935050602061193b868287016118ae565b925050604061194c868287016117f9565b9150509250925092565b61195f816117d8565b82525050565b600060208201905061197a6000830184611956565b92915050565b60006020828403121561199657611995611661565b5b60006119a4848285016118ae565b91505092915050565b6119b6816116f0565b81146119c157600080fd5b50565b6000813590506119d3816119ad565b92915050565b600080604083850312156119f0576119ef611661565b5b60006119fe858286016118ae565b9250506020611a0f858286016119c4565b9150509250929050565b600080fd5b600080fd5b7f4e487b7100000000000000000000000000000000000000000000000000000000600052604160045260246000fd5b611a5b8261176c565b810181811067ffffffffffffffff82111715611a7a57611a79611a23565b5b80604052505050565b6000611a8d611657565b9050611a998282611a52565b919050565b600067ffffffffffffffff821115611ab957611ab8611a23565b5b611ac28261176c565b9050602081019050919050565b82818337600083830152505050565b6000611af1611aec84611a9e565b611a83565b905082815260208101848484011115611b0d57611b0c611a1e565b5b611b18848285611acf565b509392505050565b600082601f830112611b3557611b34611a19565b5b8135611b45848260208601611ade565b91505092915050565b60008060008060808587031215611b6857611b67611661565b5b6000611b76878288016118ae565b9450506020611b87878288016118ae565b9350506040611b98878288016117f9565b925050606085013567ffffffffffffffff811115611bb957611bb8611666565b5b611bc587828801611b20565b91505092959194509250565b600067ffffffffffffffff821115611bec57611beb611a23565b5b611bf58261176c565b9050602081019050919050565b6000611c15611c1084611bd1565b611a83565b905082815260208101848484011115611c3157611c30611a1e565b5b611c3c848285611acf565b509392505050565b600082601f830112611c5957611c58611a19565b5b8135611c69848260208601611c02565b91505092915050565b600060208284031215611c8857611c87611661565b5b600082013567ffffffffffffffff811115611ca657611ca5611666565b5b611cb284828501611c44565b91505092915050565b60008060408385031215611cd257611cd1611661565b5b6000611ce0858286016118ae565b9250506020611cf1858286016118ae565b9150509250929050565b7f4e487b7100000000000000000000000000000000000000000000000000000000600052602260045260246000fd5b60006002820490506001821680611d4257607f821691505b602082108103611d5557611d54611cfb565b5b50919050565b6000606082019050611d70600083018661186d565b611d7d6020830185611956565b611d8a604083018461186d565b949350505050565b600081905092915050565b6000611da882611726565b611db28185611d92565b9350611dc2818560208601611742565b80840191505092915050565b6000611dda8285611d9d565b9150611de68284611d9d565b91508190509392505050565b7f4e487b7100000000000000000000000000000000000000000000000000000000600052601160045260246000fd5b6000611e2c826117d8565b9150611e37836117d8565b9250828201905080821115611e4f57611e4e611df2565b5b92915050565b600081519050919050565b600082825260208201905092915050565b6000611e7c82611e55565b611e868185611e60565b9350611e96818560208601611742565b611e9f8161176c565b840191505092915050565b6000608082019050611ebf600083018761186d565b611ecc602083018661186d565b611ed96040830185611956565b8181036060830152611eeb8184611e71565b905095945050505050565b600081519050611f0581611697565b92915050565b600060208284031215611f2157611f20611661565b5b6000611f2f84828501611ef6565b91505092915050565b7f4e487b7100000000000000000000000000000000000000000000000000000000600052601260045260246000fd5b6000604082019050611f7c600083018561186d565b611f896020830184611956565b939250505056fea2646970667358221220efb3d6856f51ad01000287f5419516594c5a8a3fae33436e0e6f42acd06b1a4e64736f6c63430008140033",
  "linkReferences": {},
  "deployedLinkReferences": {}
}