{
  "_format": "hh-sol-artifact-1",
  "contractName": "PoetryNFT",
  "sourceName": "contracts/PoetryNFT.sol",
  "abi": [
    {
      "inputs": [],
      "stateMutability": "nonpayable",
      "type": "constructor"
    },
    {
      "inputs": [
        {
          "internalType": "address",
          "name": "sender",
          "type": "address"
        },
        {
          "internalType": "uint256",
          "name": "tokenId",
          "type": "uint256"
        },
        {
          "internalType": "address",
          "name": "owner",
          "type": "address"
        }
      ],
      "name": "ERC721IncorrectOwner",
      "type": "error"
    },
    {
      "inputs": [
        {
          "internalType": "address",
          "name": "operator",
          "type": "address"
        },
        {
          "internalType": "uint256",
          "name": "tokenId",
          "type": "uint256"
        }
      ],
      "name": "ERC721InsufficientApproval",
      "type": "error"
    },
    {
      "inputs": [
        {
          "internalType": "address",
          "name": "approver",
          "type": "address"
        }
      ],
      "name": "ERC721InvalidApprover",
      "type": "error"
    },
    {
      "inputs": [
        {
          "internalType": "address",
          "name": "operator",
          "type": "address"
        }
      ],
      "name": "ERC721InvalidOperator",
      "type": "error"
    },
    {
      "inputs": [
        {
          "internalType": "address",
          "name": "owner",
          "type": "address"
        }
      ],
      "name": "ERC721InvalidOwner",
      "type": "error"
    },
    {
      "inputs": [
        {
          "internalType": "address",
          "name": "receiver",
          "type": "address"
        }
      ],
      "name": "ERC721InvalidReceiver",
      "type": "error"
    },
    {
      "inputs": [
        {
          "internalType": "address",
          "name": "sender",
          "type": "address"
        }
      ],
      "name": "ERC721InvalidSender",
      "type": "error"
    },
    {
      "inputs": [
        {
          "internalType": "uint256",
          "name": "tokenId",
          "type": "uint256"
        }
      ],
      "name": "ERC721NonexistentToken",
      "type": "error"
    },
    {
      "inputs": [
        {
          "internalType": "address",
          "name": "owner",
          "type": "address"
        }
      ],
      "name": "OwnableInvalidOwner",
      "type": "error"
    },
    {
      "inputs": [
        {
          "internalType": "address",
          "name": "account",
          "type": "address"
        }
      ],
      "name": "OwnableUnauthorizedAccount",
      "type": "error"
    },
    {
      "anonymous": false,
      "inputs": [
        {
          "indexed": true,
          "internalType": "address",
          "name": "owner",
          "type": "address"
        },
        {
          "indexed": true,
          "internalType": "address",
          "name": "approved",
          "type": "address"
        },
        {
          "indexed": true,
          "internalType": "uint256",
          "name": "tokenId",
          "type": "uint256"
        }
      ],
      "name": "Approval",
      "type": "event"
    },
    {
      "anonymous": false,
      "inputs": [
        {
          "indexed": true,
          "internalType": "address",
          "name": "owner",
          "type": "address"
        },
        {
          "indexed": true,
          "internalType": "address",
          "name": "operator",
          "type": "address"
        },
        {
          "indexed": false,
          "internalType": "bool",
          "name": "approved",
          "type": "bool"
        }
      ],
      "name": "ApprovalForAll",
      "type": "event"
    },
    {
      "anonymous": false,
      "inputs": [
        {
          "indexed": false,
          "internalType": "uint256",
          "name": "_fromTokenId",
          "type": "uint256"
        },
        {
          "indexed": false,
          "internalType": "uint256",
          "name": "_toTokenId",
          "type": "uint256"
        }
      ],
      "name": "BatchMetadataUpdate",
      "type": "event"
    },
    {
      "anonymous": false,
      "inputs": [
        {
          "indexed": false,
          "internalType": "uint256",
          "name": "_tokenId",
          "type": "uint256"
        }
      ],
      "name": "MetadataUpdate",
      "type": "event"
    },
    {
      "anonymous": false,
      "inputs": [
        {
          "indexed": true,
          "internalType": "address",
          "name": "previousOwner",
          "type": "address"
        },
        {
          "indexed": true,
          "internalType": "address",
          "name": "newOwner",
          "type": "address"
        }
      ],
      "name": "OwnershipTransferred",
      "type": "event"
    },
    {
      "anonymous": false,
      "inputs": [
        {
          "indexed": false,
          "internalType": "bool",
          "name": "paused",
          "type": "bool"
        }
      ],
      "name": "PausedStateChanged",
      "type": "event"
    },
    {
      "anonymous": false,
      "inputs": [
        {
          "indexed": true,
          "internalType": "address",
          "name": "author",
          "type": "address"
        },
        {
          "indexed": true,
          "internalType": "uint256",
          "name": "tokenId",
          "type": "uint256"
        },
        {
          "indexed": false,
          "internalType": "string",
          "name": "poemText",
          "type": "string"
        }
      ],
      "name": "PoemPublished",
      "type": "event"
    },
    {
      "anonymous": false,
      "inputs": [
        {
          "indexed": true,
          "internalType": "address",
          "name": "from",
          "type": "address"
        },
        {
          "indexed": true,
          "internalType": "address",
          "name": "to",
          "type": "address"
        },
        {
          "indexed": true,
          "internalType": "uint256",
          "name": "tokenId",
          "type": "uint256"
        }
      ],
      "name": "Transfer",
      "type": "event"
    },
    {
      "inputs": [
        {
          "internalType": "address",
          "name": "to",
          "type": "address"
        },
        {
          "internalType": "uint256",
          "name": "tokenId",
          "type": "uint256"
        }
      ],
      "name": "approve",
      "outputs": [],
      "stateMutability": "nonpayable",
      "type": "function"
    },
    {
      "inputs": [
        {
          "internalType": "address",
          "name": "owner",
          "type": "address"
        }
      ],
      "name": "balanceOf",
      "outputs": [
        {
          "internalType": "uint256",
          "name": "",
          "type": "uint256"
        }
      ],
      "stateMutability": "view",
      "type": "function"
    },
    {
      "inputs": [
        {
          "internalType": "uint256",
          "name": "tokenId",
          "type": "uint256"
        }
      ],
      "name": "getApproved",
      "outputs": [
        {
          "internalType": "address",
          "name": "",
          "type": "address"
        }
      ],
      "stateMutability": "view",
      "type": "function"
    },
    {
      "inputs": [],
      "name": "getCurrentTokenId",
      "outputs": [
        {
          "internalType": "uint256",
          "name": "",
          "type": "uint256"
        }
      ],
      "stateMutability": "view",
      "type": "function"
    },
    {
      "inputs": [
        {
          "internalType": "uint256",
          "name": "tokenId",
          "type": "uint256"
        }
      ],
      "name": "getPoemText",
      "outputs": [
        {
          "internalType": "string",
          "name": "",
          "type": "string"
        }
      ],
      "stateMutability": "view",
      "type": "function"
    },
    {
      "inputs": [
        {
          "internalType": "address",
          "name": "owner",
          "type": "address"
        },
        {
          "internalType": "address",
          "name": "operator",
          "type": "address"
        }
      ],
      "name": "isApprovedForAll",
      "outputs": [
        {
          "internalType": "bool",
          "name": "",
          "type": "bool"
        }
      ],
      "stateMutability": "view",
      "type": "function"
    },
    {
      "inputs": [],
      "name": "maxPoemLength",
      "outputs": [
        {
          "internalType": "uint256",
          "name": "",
          "type": "uint256"
        }
      ],
      "stateMutability": "view",
      "type": "function"
    },
    {
      "inputs": [],
      "name": "name",
      "outputs": [
        {
          "internalType": "string",
          "name": "",
          "type": "string"
        }
      ],
      "stateMutability": "view",
      "type": "function"
    },
    {
      "inputs": [],
      "name": "owner",
      "outputs": [
        {
          "internalType": "address",
          "name": "",
          "type": "address"
        }
      ],
      "stateMutability": "view",
      "type": "function"
    },
    {
      "inputs": [
        {
          "internalType": "uint256",
          "name": "tokenId",
          "type": "uint256"
        }
      ],
      "name": "ownerOf",
      "outputs": [
        {
          "internalType": "address",
          "name": "",
          "type": "address"
        }
      ],
      "stateMutability": "view",
      "type": "function"
    },
    {
      "inputs": [],
      "name": "paused",
      "outputs": [
        {
          "internalType": "bool",
          "name": "",
          "type": "bool"
        }
      ],
      "stateMutability": "view",
      "type": "function"
    },
    {
      "inputs": [
        {
          "internalType": "string",
          "name": "poemText",
          "type": "string"
        }
      ],
      "name": "publishPoem",
      "outputs": [
        {
          "internalType": "uint256",
          "name": "",
          "type": "uint256"
        }
      ],
      "stateMutability": "nonpayable",
      "type": "function"
    },
    {
      "inputs": [],
      "name": "renounceOwnership",
      "outputs": [],
      "stateMutability": "nonpayable",
      "type": "function"
    },
    {
      "inputs": [
        {
          "internalType": "address",
          "name": "from",
          "type": "address"
        },
        {
          "internalType": "address",
          "name": "to",
          "type": "address"
        },
        {
          "internalType": "uint256",
          "name": "tokenId",
          "type": "uint256"
        }
      ],
      "name": "safeTransferFrom",
      "outputs": [],
      "stateMutability": "nonpayable",
      "type": "function"
    },
    {
      "inputs": [
        {
          "internalType": "address",
          "name": "from",
          "type": "address"
        },
        {
          "internalType": "address",
          "name": "to",
          "type": "address"
        },
        {
          "internalType": "uint256",
          "name": "tokenId",
          "type": "uint256"
        },
        {
          "internalType": "bytes",
          "name": "data",
          "type": "bytes"
        }
      ],
      "name": "safeTransferFrom",
      "outputs": [],
      "stateMutability": "nonpayable",
      "type": "function"
    },
    {
      "inputs": [
        {
          "internalType": "address",
          "name": "operator",
          "type": "address"
        },
        {
          "internalType": "bool",
          "name": "approved",
          "type": "bool"
        }
      ],
      "name": "setApprovalForAll",
      "outputs": [],
      "stateMutability": "nonpayable",
      "type": "function"
    },
    {
      "inputs": [
        {
          "internalType": "uint256",
          "name": "newMaxLength",
          "type": "uint256"
        }
      ],
      "name": "setMaxPoemLength",
      "outputs": [],
      "stateMutability": "nonpayable",
      "type": "function"
    },
    {
      "inputs": [
        {
          "internalType": "bool",
          "name": "_paused",
          "type": "bool"
        }
      ],
      "name": "setPaused",
      "outputs": [],
      "stateMutability": "nonpayable",
      "type": "function"
    },
    {
      "inputs": [
        {
          "internalType": "bytes4",
          "name": "interfaceId",
          "type": "bytes4"
        }
      ],
      "name": "supportsInterface",
      "outputs": [
        {
          "internalType": "bool",
          "name": "",
          "type": "bool"
        }
      ],
      "stateMutability": "view",
      "type": "function"
    },
    {
      "inputs": [],
      "name": "symbol",
      "outputs": [
        {
          "internalType": "string",
          "name": "",
          "type": "string"
        }
      ],
      "stateMutability": "view",
      "type": "function"
    },
    {
      "inputs": [
        {
          "internalType": "uint256",
          "name": "tokenId",
          "type": "uint256"
        }
      ],
      "name": "tokenURI",
      "outputs": [
        {
          "internalType": "string",
          "name": "",
          "type": "string"
        }
      ],
      "stateMutability": "view",
      "type": "function"
    },
    {
      "inputs": [
        {
          "internalType": "address",
          "name": "from",
          "type": "address"
        },
        {
          "internalType": "address",
          "name": "to",
          "type": "address"
        },
        {
          "internalType": "uint256",
          "name": "tokenId",
          "type": "uint256"
        }
      ],
      "name": "transferFrom",
      "outputs": [],
      "stateMutability": "nonpayable",
      "type": "function"
    },
    {
      "inputs": [
        {
          "internalType": "address",
          "name": "newOwner",
          "type": "address"
        }
      ],
      "name": "transferOwnership",
      "outputs": [],
      "stateMutability": "nonpayable",
      "type": "function"
    }
  ],
  "bytecode": "0x60806040526101f46009556000600a60006101000a81548160ff0219169083151502179055503480156200003257600080fd5b50336040518060400160405280600981526020017f506f657472794e465400000000000000000000000000000000000000000000008152506040518060400160405280600481526020017f504f454d000000000000000000000000000000000000000000000000000000008152508160009081620000b1919062000493565b508060019081620000c3919062000493565b505050600073ffffffffffffffffffffffffffffffffffffffff168173ffffffffffffffffffffffffffffffffffffffff16036200013b5760006040517f1e4fbdf7000000000000000000000000000000000000000000000000000000008152600401620001329190620005bf565b60405180910390fd5b6200014c816200015360201b60201c565b50620005dc565b6000600760009054906101000a900473ffffffffffffffffffffffffffffffffffffffff16905081600760006101000a81548173ffffffffffffffffffffffffffffffffffffffff021916908373ffffffffffffffffffffffffffffffffffffffff1602179055508173ffffffffffffffffffffffffffffffffffffffff168173ffffffffffffffffffffffffffffffffffffffff167f8be0079c531659141344cd1fd0a4f28419497f9722a3daafe3b4186f6b6457e060405160405180910390a35050565b600081519050919050565b7f4e487b7100000000000000000000000000000000000000000000000000000000600052604160045260246000fd5b7f4e487b7100000000000000000000000000000000000000000000000000000000600052602260045260246000fd5b600060028204905060018216806200029b57607f821691505b602082108103620002b157620002b062000253565b5b50919050565b60008190508160005260206000209050919050565b60006020601f8301049050919050565b600082821b905092915050565b6000600883026200031b7fffffffffffffffffffffffffffffffffffffffffffffffffffffffffffffffff82620002dc565b620003278683620002dc565b95508019841693508086168417925050509392505050565b6000819050919050565b6000819050919050565b6000620003746200036e62000368846200033f565b62000349565b6200033f565b9050919050565b6000819050919050565b620003908362000353565b620003a86200039f826200037b565b848454620002e9565b825550505050565b600090565b620003bf620003b0565b620003cc81848462000385565b505050565b5b81811015620003f457620003e8600082620003b5565b600181019050620003d2565b5050565b601f82111562000443576200040d81620002b7565b6200041884620002cc565b8101602085101562000428578190505b620004406200043785620002cc565b830182620003d1565b50505b505050565b600082821c905092915050565b6000620004686000198460080262000448565b1980831691505092915050565b600062000483838362000455565b9150826002028217905092915050565b6200049e8262000219565b67ffffffffffffffff811115620004ba57620004b962000224565b5b620004c6825462000282565b620004d3828285620003f8565b600060209050601f8311600181146200050b5760008415620004f6578287015190505b62000502858262000475565b86555062000572565b601f1984166200051b86620002b7565b60005b8281101562000545578489015182556001820191506020850194506020810190506200051e565b8683101562000565578489015162000561601f89168262000455565b8355505b6001600288020188555050505b505050505050565b600073ffffffffffffffffffffffffffffffffffffffff82169050919050565b6000620005a7826200057a565b9050919050565b620005b9816200059a565b82525050565b6000602082019050620005d66000830184620005ae565b92915050565b61320d80620005ec6000396000f3fe608060405234801561001057600080fd5b506004361061014d5760003560e01c80636352211e116100c3578063b88d4fde1161007c578063b88d4fde1461038a578063bbb1bcdd146103a6578063c87b56dd146103c4578063e040b5ed146103f4578063e985e9c514610424578063f2fde38b146104545761014d565b80636352211e146102c857806370a08231146102f8578063715018a6146103285780638da5cb5b1461033257806395d89b4114610350578063a22cb4651461036e5761014d565b806316c38b3c1161011557806316c38b3c1461020857806323b872dd1461022457806342842e0e14610240578063561892361461025c5780635c975abb1461027a5780635f429f81146102985761014d565b806301ffc9a71461015257806306fdde0314610182578063081812fc146101a0578063095ea7b3146101d05780631644d8c1146101ec575b600080fd5b61016c60048036038101906101679190612141565b610470565b6040516101799190612189565b60405180910390f35b61018a6104d1565b6040516101979190612234565b60405180910390f35b6101ba60048036038101906101b5919061228c565b610563565b6040516101c791906122fa565b60405180910390f35b6101ea60048036038101906101e59190612341565b61057f565b005b6102066004803603810190610201919061228c565b610595565b005b610222600480360381019061021d91906123ad565b61062f565b005b61023e600480360381019061023991906123da565b61068b565b005b61025a600480360381019061025591906123da565b61078d565b005b6102646107ad565b604051610271919061243c565b60405180910390f35b6102826107b7565b60405161028f9190612189565b60405180910390f35b6102b260048036038101906102ad919061228c565b6107ca565b6040516102bf9190612234565b60405180910390f35b6102e260048036038101906102dd919061228c565b6108b3565b6040516102ef91906122fa565b60405180910390f35b610312600480360381019061030d9190612457565b6108c5565b60405161031f919061243c565b60405180910390f35b61033061097f565b005b61033a610993565b60405161034791906122fa565b60405180910390f35b6103586109bd565b6040516103659190612234565b60405180910390f35b61038860048036038101906103839190612484565b610a4f565b005b6103a4600480360381019061039f91906125f9565b610a65565b005b6103ae610a8a565b6040516103bb919061243c565b60405180910390f35b6103de60048036038101906103d9919061228c565b610a90565b6040516103eb9190612234565b60405180910390f35b61040e6004803603810190610409919061271d565b610ba3565b60405161041b919061243c565b60405180910390f35b61043e60048036038101906104399190612766565b610d89565b60405161044b9190612189565b60405180910390f35b61046e60048036038101906104699190612457565b610e1d565b005b6000634906490660e01b7bffffffffffffffffffffffffffffffffffffffffffffffffffffffff1916827bffffffffffffffffffffffffffffffffffffffffffffffffffffffff191614806104ca57506104c982610ea3565b5b9050919050565b6060600080546104e0906127d5565b80601f016020809104026020016040519081016040528092919081815260200182805461050c906127d5565b80156105595780601f1061052e57610100808354040283529160200191610559565b820191906000526020600020905b81548152906001019060200180831161053c57829003601f168201915b5050505050905090565b600061056e82610f85565b506105788261100d565b9050919050565b610591828261058c61104a565b611052565b5050565b61059d611064565b600081116105e0576040517f08c379a00000000000000000000000000000000000000000000000000000000081526004016105d790612852565b60405180910390fd5b612710811115610625576040517f08c379a000000000000000000000000000000000000000000000000000000000815260040161061c906128be565b60405180910390fd5b8060098190555050565b610637611064565b80600a60006101000a81548160ff0219169083151502179055507f9e3a5e37224532dea67b89face185703738a228a6e8a23dee546960180d3be64816040516106809190612189565b60405180910390a150565b600073ffffffffffffffffffffffffffffffffffffffff168273ffffffffffffffffffffffffffffffffffffffff16036106fd5760006040517f64a0ae920000000000000000000000000000000000000000000000000000000081526004016106f491906122fa565b60405180910390fd5b6000610711838361070c61104a565b6110eb565b90508373ffffffffffffffffffffffffffffffffffffffff168173ffffffffffffffffffffffffffffffffffffffff1614610787578382826040517f64283d7b00000000000000000000000000000000000000000000000000000000815260040161077e939291906128de565b60405180910390fd5b50505050565b6107a883838360405180602001604052806000815250610a65565b505050565b6000600854905090565b600a60009054906101000a900460ff1681565b60606008548210610810576040517f08c379a000000000000000000000000000000000000000000000000000000000815260040161080790612961565b60405180910390fd5b600b6000838152602001908152602001600020805461082e906127d5565b80601f016020809104026020016040519081016040528092919081815260200182805461085a906127d5565b80156108a75780601f1061087c576101008083540402835291602001916108a7565b820191906000526020600020905b81548152906001019060200180831161088a57829003601f168201915b50505050509050919050565b60006108be82610f85565b9050919050565b60008073ffffffffffffffffffffffffffffffffffffffff168273ffffffffffffffffffffffffffffffffffffffff16036109385760006040517f89c62b6400000000000000000000000000000000000000000000000000000000815260040161092f91906122fa565b60405180910390fd5b600360008373ffffffffffffffffffffffffffffffffffffffff1673ffffffffffffffffffffffffffffffffffffffff168152602001908152602001600020549050919050565b610987611064565b6109916000611305565b565b6000600760009054906101000a900473ffffffffffffffffffffffffffffffffffffffff16905090565b6060600180546109cc906127d5565b80601f01602080910402602001604051908101604052809291908181526020018280546109f8906127d5565b8015610a455780601f10610a1a57610100808354040283529160200191610a45565b820191906000526020600020905b815481529060010190602001808311610a2857829003601f168201915b5050505050905090565b610a61610a5a61104a565b83836113cb565b5050565b610a7084848461068b565b610a84610a7b61104a565b8585858561153a565b50505050565b60095481565b6060610a9b82610f85565b506000600660008481526020019081526020016000208054610abc906127d5565b80601f0160208091040260200160405190810160405280929190818152602001828054610ae8906127d5565b8015610b355780601f10610b0a57610100808354040283529160200191610b35565b820191906000526020600020905b815481529060010190602001808311610b1857829003601f168201915b505050505090506000610b466116eb565b90506000815103610b5b578192505050610b9e565b600082511115610b90578082604051602001610b789291906129bd565b60405160208183030381529060405292505050610b9e565b610b9984611702565b925050505b919050565b6000600a60009054906101000a900460ff1615610bf5576040517f08c379a0000000000000000000000000000000000000000000000000000000008152600401610bec90612a2d565b60405180910390fd5b6000825111610c39576040517f08c379a0000000000000000000000000000000000000000000000000000000008152600401610c3090612a99565b60405180910390fd5b60095482511115610c7f576040517f08c379a0000000000000000000000000000000000000000000000000000000008152600401610c7690612b05565b60405180910390fd5b60006008549050600160086000828254610c999190612b54565b9250508190555082600b60008381526020019081526020016000209081610cc09190612d34565b50610ccb338261176b565b6000610cff610cd983611789565b85604051602001610ceb929190612f36565b604051602081830303815290604052611857565b9050600081604051602001610d149190612fc7565b6040516020818303038152906040529050610d2f8382611884565b823373ffffffffffffffffffffffffffffffffffffffff167f82c444b2d4d9c2614b9657b281c76ca3e6e788fe517519458b93818227382d2c87604051610d769190612234565b60405180910390a3829350505050919050565b6000600560008473ffffffffffffffffffffffffffffffffffffffff1673ffffffffffffffffffffffffffffffffffffffff16815260200190815260200160002060008373ffffffffffffffffffffffffffffffffffffffff1673ffffffffffffffffffffffffffffffffffffffff16815260200190815260200160002060009054906101000a900460ff16905092915050565b610e25611064565b600073ffffffffffffffffffffffffffffffffffffffff168173ffffffffffffffffffffffffffffffffffffffff1603610e975760006040517f1e4fbdf7000000000000000000000000000000000000000000000000000000008152600401610e8e91906122fa565b60405180910390fd5b610ea081611305565b50565b60007f80ac58cd000000000000000000000000000000000000000000000000000000007bffffffffffffffffffffffffffffffffffffffffffffffffffffffff1916827bffffffffffffffffffffffffffffffffffffffffffffffffffffffff19161480610f6e57507f5b5e139f000000000000000000000000000000000000000000000000000000007bffffffffffffffffffffffffffffffffffffffffffffffffffffffff1916827bffffffffffffffffffffffffffffffffffffffffffffffffffffffff1916145b80610f7e5750610f7d826118e0565b5b9050919050565b600080610f918361194a565b9050600073ffffffffffffffffffffffffffffffffffffffff168173ffffffffffffffffffffffffffffffffffffffff160361100457826040517f7e273289000000000000000000000000000000000000000000000000000000008152600401610ffb919061243c565b60405180910390fd5b80915050919050565b60006004600083815260200190815260200160002060009054906101000a900473ffffffffffffffffffffffffffffffffffffffff169050919050565b600033905090565b61105f8383836001611987565b505050565b61106c61104a565b73ffffffffffffffffffffffffffffffffffffffff1661108a610993565b73ffffffffffffffffffffffffffffffffffffffff16146110e9576110ad61104a565b6040517f118cdaa70000000000000000000000000000000000000000000000000000000081526004016110e091906122fa565b60405180910390fd5b565b6000806110f78461194a565b9050600073ffffffffffffffffffffffffffffffffffffffff168373ffffffffffffffffffffffffffffffffffffffff161461113957611138818486611b4c565b5b600073ffffffffffffffffffffffffffffffffffffffff168173ffffffffffffffffffffffffffffffffffffffff16146111ca5761117b600085600080611987565b6001600360008373ffffffffffffffffffffffffffffffffffffffff1673ffffffffffffffffffffffffffffffffffffffff168152602001908152602001600020600082825403925050819055505b600073ffffffffffffffffffffffffffffffffffffffff168573ffffffffffffffffffffffffffffffffffffffff161461124d576001600360008773ffffffffffffffffffffffffffffffffffffffff1673ffffffffffffffffffffffffffffffffffffffff168152602001908152602001600020600082825401925050819055505b846002600086815260200190815260200160002060006101000a81548173ffffffffffffffffffffffffffffffffffffffff021916908373ffffffffffffffffffffffffffffffffffffffff160217905550838573ffffffffffffffffffffffffffffffffffffffff168273ffffffffffffffffffffffffffffffffffffffff167fddf252ad1be2c89b69c2b068fc378daa952ba7f163c4a11628f55a4df523b3ef60405160405180910390a4809150509392505050565b6000600760009054906101000a900473ffffffffffffffffffffffffffffffffffffffff16905081600760006101000a81548173ffffffffffffffffffffffffffffffffffffffff021916908373ffffffffffffffffffffffffffffffffffffffff1602179055508173ffffffffffffffffffffffffffffffffffffffff168173ffffffffffffffffffffffffffffffffffffffff167f8be0079c531659141344cd1fd0a4f28419497f9722a3daafe3b4186f6b6457e060405160405180910390a35050565b600073ffffffffffffffffffffffffffffffffffffffff168273ffffffffffffffffffffffffffffffffffffffff160361143c57816040517f5b08ba1800000000000000000000000000000000000000000000000000000000815260040161143391906122fa565b60405180910390fd5b80600560008573ffffffffffffffffffffffffffffffffffffffff1673ffffffffffffffffffffffffffffffffffffffff16815260200190815260200160002060008473ffffffffffffffffffffffffffffffffffffffff1673ffffffffffffffffffffffffffffffffffffffff16815260200190815260200160002060006101000a81548160ff0219169083151502179055508173ffffffffffffffffffffffffffffffffffffffff168373ffffffffffffffffffffffffffffffffffffffff167f17307eab39ab6107e8899845ad3d59bd9653f200f220920489ca2b5937696c318360405161152d9190612189565b60405180910390a3505050565b60008373ffffffffffffffffffffffffffffffffffffffff163b11156116e4578273ffffffffffffffffffffffffffffffffffffffff1663150b7a02868685856040518563ffffffff1660e01b8152600401611599949392919061303e565b6020604051808303816000875af19250505080156115d557506040513d601f19601f820116820180604052508101906115d2919061309f565b60015b611659573d8060008114611605576040519150601f19603f3d011682016040523d82523d6000602084013e61160a565b606091505b50600081510361165157836040517f64a0ae9200000000000000000000000000000000000000000000000000000000815260040161164891906122fa565b60405180910390fd5b805181602001fd5b63150b7a0260e01b7bffffffffffffffffffffffffffffffffffffffffffffffffffffffff1916817bffffffffffffffffffffffffffffffffffffffffffffffffffffffff1916146116e257836040517f64a0ae920000000000000000000000000000000000000000000000000000000081526004016116d991906122fa565b60405180910390fd5b505b5050505050565b606060405180602001604052806000815250905090565b606061170d82610f85565b5060006117186116eb565b905060008151116117385760405180602001604052806000815250611763565b8061174284611789565b6040516020016117539291906129bd565b6040516020818303038152906040525b915050919050565b611785828260405180602001604052806000815250611c10565b5050565b60606000600161179884611c34565b01905060008167ffffffffffffffff8111156117b7576117b66124ce565b5b6040519080825280601f01601f1916602001820160405280156117e95781602001600182028036833780820191505090505b509050600082602001820190505b60011561184c578080600190039150507f3031323334353637383961626364656600000000000000000000000000000000600a86061a8153600a85816118405761183f6130cc565b5b049450600085036117f7575b819350505050919050565b606061187d82604051806060016040528060408152602001613198604091396001611d87565b9050919050565b806006600084815260200190815260200160002090816118a49190612d34565b507ff8e1a15aba9398e019f0b49df1a4fde98ee17ae345cb5f6b5e2c27f5033e8ce7826040516118d4919061243c565b60405180910390a15050565b60007f01ffc9a7000000000000000000000000000000000000000000000000000000007bffffffffffffffffffffffffffffffffffffffffffffffffffffffff1916827bffffffffffffffffffffffffffffffffffffffffffffffffffffffff1916149050919050565b60006002600083815260200190815260200160002060009054906101000a900473ffffffffffffffffffffffffffffffffffffffff169050919050565b80806119c05750600073ffffffffffffffffffffffffffffffffffffffff168273ffffffffffffffffffffffffffffffffffffffff1614155b15611af45760006119d084610f85565b9050600073ffffffffffffffffffffffffffffffffffffffff168373ffffffffffffffffffffffffffffffffffffffff1614158015611a3b57508273ffffffffffffffffffffffffffffffffffffffff168173ffffffffffffffffffffffffffffffffffffffff1614155b8015611a4e5750611a4c8184610d89565b155b15611a9057826040517fa9fbf51f000000000000000000000000000000000000000000000000000000008152600401611a8791906122fa565b60405180910390fd5b8115611af257838573ffffffffffffffffffffffffffffffffffffffff168273ffffffffffffffffffffffffffffffffffffffff167f8c5be1e5ebec7d5bd14f71427d1e84f3dd0314c0f7b2291e5b200ac8c7c3b92560405160405180910390a45b505b836004600085815260200190815260200160002060006101000a81548173ffffffffffffffffffffffffffffffffffffffff021916908373ffffffffffffffffffffffffffffffffffffffff16021790555050505050565b611b57838383611f1b565b611c0b57600073ffffffffffffffffffffffffffffffffffffffff168373ffffffffffffffffffffffffffffffffffffffff1603611bcc57806040517f7e273289000000000000000000000000000000000000000000000000000000008152600401611bc3919061243c565b60405180910390fd5b81816040517f177e802f000000000000000000000000000000000000000000000000000000008152600401611c029291906130fb565b60405180910390fd5b505050565b611c1a8383611fdc565b611c2f611c2561104a565b600085858561153a565b505050565b600080600090507a184f03e93ff9f4daa797ed6e38ed64bf6a1f0100000000000000008310611c92577a184f03e93ff9f4daa797ed6e38ed64bf6a1f0100000000000000008381611c8857611c876130cc565b5b0492506040810190505b6d04ee2d6d415b85acef81000000008310611ccf576d04ee2d6d415b85acef81000000008381611cc557611cc46130cc565b5b0492506020810190505b662386f26fc100008310611cfe57662386f26fc100008381611cf457611cf36130cc565b5b0492506010810190505b6305f5e1008310611d27576305f5e1008381611d1d57611d1c6130cc565b5b0492506008810190505b6127108310611d4c576127108381611d4257611d416130cc565b5b0492506004810190505b60648310611d6f5760648381611d6557611d646130cc565b5b0492506002810190505b600a8310611d7e576001810190505b80915050919050565b60606000845103611da957604051806020016040528060008152509050611f14565b600082611ddb576003600286516004611dc29190613124565b611dcc9190612b54565b611dd69190613166565b611e02565b600360028651611deb9190612b54565b611df59190613166565b6004611e019190613124565b5b905060008167ffffffffffffffff811115611e2057611e1f6124ce565b5b6040519080825280601f01601f191660200182016040528015611e525781602001600182028036833780820191505090505b50905060018501602082018788518901602081018051600082525b82841015611ec8576003840193508351603f8160121c168701518653600186019550603f81600c1c168701518653600186019550603f8160061c168701518653600186019550603f8116870151865360018601955050611e6d565b8082528915611f085760038c510660018114611eeb5760028114611efe57611f06565b603d6001870353603d6002870353611f06565b603d60018703535b505b50505050505080925050505b9392505050565b60008073ffffffffffffffffffffffffffffffffffffffff168373ffffffffffffffffffffffffffffffffffffffff1614158015611fd357508273ffffffffffffffffffffffffffffffffffffffff168473ffffffffffffffffffffffffffffffffffffffff161480611f945750611f938484610d89565b5b80611fd257508273ffffffffffffffffffffffffffffffffffffffff16611fba8361100d565b73ffffffffffffffffffffffffffffffffffffffff16145b5b90509392505050565b600073ffffffffffffffffffffffffffffffffffffffff168273ffffffffffffffffffffffffffffffffffffffff160361204e5760006040517f64a0ae9200000000000000000000000000000000000000000000000000000000815260040161204591906122fa565b60405180910390fd5b600061205c838360006110eb565b9050600073ffffffffffffffffffffffffffffffffffffffff168173ffffffffffffffffffffffffffffffffffffffff16146120d05760006040517f73c6ac6e0000000000000000000000000000000000000000000000000000000081526004016120c791906122fa565b60405180910390fd5b505050565b6000604051905090565b600080fd5b600080fd5b60007fffffffff0000000000000000000000000000000000000000000000000000000082169050919050565b61211e816120e9565b811461212957600080fd5b50565b60008135905061213b81612115565b92915050565b600060208284031215612157576121566120df565b5b60006121658482850161212c565b91505092915050565b60008115159050919050565b6121838161216e565b82525050565b600060208201905061219e600083018461217a565b92915050565b600081519050919050565b600082825260208201905092915050565b60005b838110156121de5780820151818401526020810190506121c3565b60008484015250505050565b6000601f19601f8301169050919050565b6000612206826121a4565b61221081856121af565b93506122208185602086016121c0565b612229816121ea565b840191505092915050565b6000602082019050818103600083015261224e81846121fb565b905092915050565b6000819050919050565b61226981612256565b811461227457600080fd5b50565b60008135905061228681612260565b92915050565b6000602082840312156122a2576122a16120df565b5b60006122b084828501612277565b91505092915050565b600073ffffffffffffffffffffffffffffffffffffffff82169050919050565b60006122e4826122b9565b9050919050565b6122f4816122d9565b82525050565b600060208201905061230f60008301846122eb565b92915050565b61231e816122d9565b811461232957600080fd5b50565b60008135905061233b81612315565b92915050565b60008060408385031215612358576123576120df565b5b60006123668582860161232c565b925050602061237785828601612277565b9150509250929050565b61238a8161216e565b811461239557600080fd5b50565b6000813590506123a781612381565b92915050565b6000602082840312156123c3576123c26120df565b5b60006123d184828501612398565b91505092915050565b6000806000606084860312156123f3576123f26120df565b5b60006124018682870161232c565b93505060206124128682870161232c565b925050604061242386828701612277565b9150509250925092565b61243681612256565b82525050565b6000602082019050612451600083018461242d565b92915050565b60006020828403121561246d5761246c6120df565b5b600061247b8482850161232c565b91505092915050565b6000806040838503121561249b5761249a6120df565b5b60006124a98582860161232c565b92505060206124ba85828601612398565b9150509250929050565b600080fd5b600080fd5b7f4e487b7100000000000000000000000000000000000000000000000000000000600052604160045260246000fd5b612506826121ea565b810181811067ffffffffffffffff82111715612525576125246124ce565b5b80604052505050565b60006125386120d5565b905061254482826124fd565b919050565b600067ffffffffffffffff821115612564576125636124ce565b5b61256d826121ea565b9050602081019050919050565b82818337600083830152505050565b600061259c61259784612549565b61252e565b9050828152602081018484840111156125b8576125b76124c9565b5b6125c384828561257a565b509392505050565b600082601f8301126125e0576125df6124c4565b5b81356125f0848260208601612589565b91505092915050565b60008060008060808587031215612613576126126120df565b5b60006126218782880161232c565b94505060206126328782880161232c565b935050604061264387828801612277565b925050606085013567ffffffffffffffff811115612664576126636120e4565b5b612670878288016125cb565b91505092959194509250565b600067ffffffffffffffff821115612697576126966124ce565b5b6126a0826121ea565b9050602081019050919050565b60006126c06126bb8461267c565b61252e565b9050828152602081018484840111156126dc576126db6124c9565b5b6126e784828561257a565b509392505050565b600082601f830112612704576127036124c4565b5b81356127148482602086016126ad565b91505092915050565b600060208284031215612733576127326120df565b5b600082013567ffffffffffffffff811115612751576127506120e4565b5b61275d848285016126ef565b91505092915050565b6000806040838503121561277d5761277c6120df565b5b600061278b8582860161232c565b925050602061279c8582860161232c565b9150509250929050565b7f4e487b7100000000000000000000000000000000000000000000000000000000600052602260045260246000fd5b600060028204905060018216806127ed57607f821691505b602082108103612800576127ff6127a6565b5b50919050565b7f4d6178206c656e677468206d75737420626520706f7369746976650000000000600082015250565b600061283c601b836121af565b915061284782612806565b602082019050919050565b6000602082019050818103600083015261286b8161282f565b9050919050565b7f4d6178206c656e67746820746f6f206c61726765000000000000000000000000600082015250565b60006128a86014836121af565b91506128b382612872565b602082019050919050565b600060208201905081810360008301526128d78161289b565b9050919050565b60006060820190506128f360008301866122eb565b612900602083018561242d565b61290d60408301846122eb565b949350505050565b7f506f656d20646f6573206e6f7420657869737400000000000000000000000000600082015250565b600061294b6013836121af565b915061295682612915565b602082019050919050565b6000602082019050818103600083015261297a8161293e565b9050919050565b600081905092915050565b6000612997826121a4565b6129a18185612981565b93506129b18185602086016121c0565b80840191505092915050565b60006129c9828561298c565b91506129d5828461298c565b91508190509392505050565b7f436f6e7472616374206973207061757365640000000000000000000000000000600082015250565b6000612a176012836121af565b9150612a22826129e1565b602082019050919050565b60006020820190508181036000830152612a4681612a0a565b9050919050565b7f506f656d20746578742063616e6e6f7420626520656d70747900000000000000600082015250565b6000612a836019836121af565b9150612a8e82612a4d565b602082019050919050565b60006020820190508181036000830152612ab281612a76565b9050919050565b7f506f656d2065786365656473206d6178696d756d206c656e6774680000000000600082015250565b6000612aef601b836121af565b9150612afa82612ab9565b602082019050919050565b60006020820190508181036000830152612b1e81612ae2565b9050919050565b7f4e487b7100000000000000000000000000000000000000000000000000000000600052601160045260246000fd5b6000612b5f82612256565b9150612b6a83612256565b9250828201905080821115612b8257612b81612b25565b5b92915050565b60008190508160005260206000209050919050565b60006020601f8301049050919050565b600082821b905092915050565b600060088302612bea7fffffffffffffffffffffffffffffffffffffffffffffffffffffffffffffffff82612bad565b612bf48683612bad565b95508019841693508086168417925050509392505050565b6000819050919050565b6000612c31612c2c612c2784612256565b612c0c565b612256565b9050919050565b6000819050919050565b612c4b83612c16565b612c5f612c5782612c38565b848454612bba565b825550505050565b600090565b612c74612c67565b612c7f818484612c42565b505050565b5b81811015612ca357612c98600082612c6c565b600181019050612c85565b5050565b601f821115612ce857612cb981612b88565b612cc284612b9d565b81016020851015612cd1578190505b612ce5612cdd85612b9d565b830182612c84565b50505b505050565b600082821c905092915050565b6000612d0b60001984600802612ced565b1980831691505092915050565b6000612d248383612cfa565b9150826002028217905092915050565b612d3d826121a4565b67ffffffffffffffff811115612d5657612d556124ce565b5b612d6082546127d5565b612d6b828285612ca7565b600060209050601f831160018114612d9e5760008415612d8c578287015190505b612d968582612d18565b865550612dfe565b601f198416612dac86612b88565b60005b82811015612dd457848901518255600182019150602085019450602081019050612daf565b86831015612df15784890151612ded601f891682612cfa565b8355505b6001600288020188555050505b505050505050565b7f7b226e616d65223a2022506f65747279204e4654202300000000000000000000600082015250565b6000612e3c601683612981565b9150612e4782612e06565b601682019050919050565b7f222c20226465736372697074696f6e223a20224120706f656d207075626c697360008201527f686564206f6e2074686520626c6f636b636861696e222c2022706f656d223a2060208201527f2200000000000000000000000000000000000000000000000000000000000000604082015250565b6000612ed4604183612981565b9150612edf82612e52565b604182019050919050565b7f227d000000000000000000000000000000000000000000000000000000000000600082015250565b6000612f20600283612981565b9150612f2b82612eea565b600282019050919050565b6000612f4182612e2f565b9150612f4d828561298c565b9150612f5882612ec7565b9150612f64828461298c565b9150612f6f82612f13565b91508190509392505050565b7f646174613a6170706c69636174696f6e2f6a736f6e3b6261736536342c000000600082015250565b6000612fb1601d83612981565b9150612fbc82612f7b565b601d82019050919050565b6000612fd282612fa4565b9150612fde828461298c565b915081905092915050565b600081519050919050565b600082825260208201905092915050565b600061301082612fe9565b61301a8185612ff4565b935061302a8185602086016121c0565b613033816121ea565b840191505092915050565b600060808201905061305360008301876122eb565b61306060208301866122eb565b61306d604083018561242d565b818103606083015261307f8184613005565b905095945050505050565b60008151905061309981612115565b92915050565b6000602082840312156130b5576130b46120df565b5b60006130c38482850161308a565b91505092915050565b7f4e487b7100000000000000000000000000000000000000000000000000000000600052601260045260246000fd5b600060408201905061311060008301856122eb565b61311d602083018461242d565b9392505050565b600061312f82612256565b915061313a83612256565b925082820261314881612256565b9150828204841483151761315f5761315e612b25565b5b5092915050565b600061317182612256565b915061317c83612256565b92508261318c5761318b6130cc565b5b82820490509291505056fe4142434445464748494a4b4c4d4e4f505152535455565758595a6162636465666768696a6b6c6d6e6f707172737475767778797a303132333435363738392b2fa2646970667358221220e44d7be06e88b5e8ef94598abe7fa7e9d5dd5de4dc6a786eea2b0b07677e897e64736f6c63430008140033",
  "linkReferences": {},
  "deployedLinkReferences": {}
}